{
  "contractName": "DocusignSimple",
  "abi": [
    {
      "constant": true,
      "inputs": [],
      "name": "seller",
      "outputs": [
        {
          "name": "",
          "type": "address"
        }
      ],
      "payable": false,
      "stateMutability": "view",
      "type": "function"
    },
    {
      "constant": true,
      "inputs": [],
      "name": "client",
      "outputs": [
        {
          "name": "",
          "type": "address"
        }
      ],
      "payable": false,
      "stateMutability": "view",
      "type": "function"
    },
    {
      "constant": false,
      "inputs": [],
      "name": "pay",
      "outputs": [],
      "payable": true,
      "stateMutability": "payable",
      "type": "function"
    },
    {
      "constant": true,
      "inputs": [],
      "name": "value",
      "outputs": [
        {
          "name": "",
          "type": "uint256"
        }
      ],
      "payable": false,
      "stateMutability": "view",
      "type": "function"
    },
    {
      "constant": false,
      "inputs": [],
      "name": "refund",
      "outputs": [],
      "payable": true,
      "stateMutability": "payable",
      "type": "function"
    },
    {
      "constant": false,
      "inputs": [],
      "name": "unlock",
      "outputs": [],
      "payable": false,
      "stateMutability": "nonpayable",
      "type": "function"
    },
    {
      "constant": true,
      "inputs": [],
      "name": "locked",
      "outputs": [
        {
          "name": "",
          "type": "bool"
        }
      ],
      "payable": false,
      "stateMutability": "view",
      "type": "function"
    },
    {
      "inputs": [
        {
          "name": "_seller",
          "type": "address"
        },
        {
          "name": "_client",
          "type": "address"
        }
      ],
      "payable": true,
      "stateMutability": "payable",
      "type": "constructor"
    }
  ],
  "bytecode": "0x606060405260405160408061040583398101604052808051906020019091908051906020019091905050816000806101000a81548173ffffffffffffffffffffffffffffffffffffffff021916908373ffffffffffffffffffffffffffffffffffffffff16021790555080600160006101000a81548173ffffffffffffffffffffffffffffffffffffffff021916908373ffffffffffffffffffffffffffffffffffffffff1602179055503460028190555060018060146101000a81548160ff0219169083151502179055505050610329806100dc6000396000f300606060405260043610610083576000357c0100000000000000000000000000000000000000000000000000000000900463ffffffff16806308551a5314610088578063109e94cf146100dd5780631b9265b8146101325780633fa4f2451461013c578063590e1ae314610165578063a69df4b51461016f578063cf30901214610184575b600080fd5b341561009357600080fd5b61009b6101b1565b604051808273ffffffffffffffffffffffffffffffffffffffff1673ffffffffffffffffffffffffffffffffffffffff16815260200191505060405180910390f35b34156100e857600080fd5b6100f06101d6565b604051808273ffffffffffffffffffffffffffffffffffffffff1673ffffffffffffffffffffffffffffffffffffffff16815260200191505060405180910390f35b61013a6101fc565b005b341561014757600080fd5b61014f610261565b6040518082815260200191505060405180910390f35b61016d610267565b005b341561017a57600080fd5b6101826102cd565b005b341561018f57600080fd5b6101976102ea565b604051808215151515815260200191505060405180910390f35b6000809054906101000a900473ffffffffffffffffffffffffffffffffffffffff1681565b600160009054906101000a900473ffffffffffffffffffffffffffffffffffffffff1681565b6000809054906101000a900473ffffffffffffffffffffffffffffffffffffffff1673ffffffffffffffffffffffffffffffffffffffff166108fc6002549081150290604051600060405180830381858888f19350505050151561025f57600080fd5b565b60025481565b600160009054906101000a900473ffffffffffffffffffffffffffffffffffffffff1673ffffffffffffffffffffffffffffffffffffffff166108fc6002549081150290604051600060405180830381858888f1935050505015156102cb57600080fd5b565b6000600160146101000a81548160ff021916908315150217905550565b600160149054906101000a900460ff16815600a165627a7a7230582047d44fafe1481994074a538ce0af146c3307377cc62729c9a1b5c3254bc7bd6a0029",
  "source": "pragma solidity ^0.4.0;\n\ncontract DocusignSimple {\n    address public seller;\n    address public client;\n    bool public locked;\n    uint256 public value;\n\n    function DocusignSimple(address _seller, address _client) public payable {\n        seller = _seller;\n        client = _client;\n        value = msg.value;\n        locked = true;\n    }\n\n    function pay() public payable {\n        seller.transfer(value);\n    }\n\n    function refund() public payable {\n      client.transfer(value);\n    }\n\n    function unlock() public {\n      locked = false;\n    }\n\n\n}\n",
  "sourcePath": "/Users/remi.keophila/blockchain/smart_contract/contracts/SimpleTransaction.sol",
  "compiler": {
    "name": "solc",
    "version": "0.4.18+commit.9cf6e910.Emscripten.clang"
  },
  "schemaVersion": "1.0.1",
  "updatedAt": "2018-02-05T17:55:16.601Z"
}